{
  "_format": "hh-sol-artifact-1",
  "contractName": "L2TokenBridge",
  "sourceName": "contracts/L2TokenBridge.sol",
  "abi": [
    {
      "inputs": [],
      "stateMutability": "nonpayable",
      "type": "constructor"
    },
    {
      "anonymous": false,
      "inputs": [
        {
          "indexed": true,
          "internalType": "address",
          "name": "l1Token",
          "type": "address"
        },
        {
          "indexed": true,
          "internalType": "address",
          "name": "l2Token",
          "type": "address"
        },
        {
          "indexed": true,
          "internalType": "address",
          "name": "from",
          "type": "address"
        },
        {
          "indexed": false,
          "internalType": "address",
          "name": "to",
          "type": "address"
        },
        {
          "indexed": false,
          "internalType": "uint256",
          "name": "amount",
          "type": "uint256"
        },
        {
          "indexed": false,
          "internalType": "bytes",
          "name": "data",
          "type": "bytes"
        }
      ],
      "name": "FinalizeDepositERC20",
      "type": "event"
    },
    {
      "anonymous": false,
      "inputs": [
        {
          "indexed": true,
          "internalType": "address",
          "name": "previousOwner",
          "type": "address"
        },
        {
          "indexed": true,
          "internalType": "address",
          "name": "newOwner",
          "type": "address"
        }
      ],
      "name": "OwnershipTransferred",
      "type": "event"
    },
    {
      "anonymous": false,
      "inputs": [
        {
          "indexed": true,
          "internalType": "address",
          "name": "l1Token",
          "type": "address"
        },
        {
          "indexed": true,
          "internalType": "address",
          "name": "l2Token",
          "type": "address"
        },
        {
          "indexed": true,
          "internalType": "address",
          "name": "from",
          "type": "address"
        },
        {
          "indexed": false,
          "internalType": "address",
          "name": "to",
          "type": "address"
        },
        {
          "indexed": false,
          "internalType": "uint256",
          "name": "amount",
          "type": "uint256"
        },
        {
          "indexed": false,
          "internalType": "bytes",
          "name": "data",
          "type": "bytes"
        }
      ],
      "name": "WithdrawERC20",
      "type": "event"
    },
    {
      "inputs": [
        {
          "internalType": "uint256",
          "name": "_amount",
          "type": "uint256"
        },
        {
          "internalType": "uint256",
          "name": "_gasLimit",
          "type": "uint256"
        }
      ],
      "name": "bridgeToken",
      "outputs": [],
      "stateMutability": "payable",
      "type": "function"
    },
    {
      "inputs": [],
      "name": "counterpart",
      "outputs": [
        {
          "internalType": "address",
          "name": "",
          "type": "address"
        }
      ],
      "stateMutability": "view",
      "type": "function"
    },
    {
      "inputs": [
        {
          "internalType": "address",
          "name": "_l1Token",
          "type": "address"
        },
        {
          "internalType": "address",
          "name": "_l2Token",
          "type": "address"
        },
        {
          "internalType": "address",
          "name": "_from",
          "type": "address"
        },
        {
          "internalType": "address",
          "name": "_to",
          "type": "address"
        },
        {
          "internalType": "uint256",
          "name": "_amount",
          "type": "uint256"
        },
        {
          "internalType": "bytes",
          "name": "_data",
          "type": "bytes"
        }
      ],
      "name": "finalizeDepositERC20",
      "outputs": [],
      "stateMutability": "nonpayable",
      "type": "function"
    },
    {
      "inputs": [
        {
          "internalType": "address",
          "name": "_l2Token",
          "type": "address"
        }
      ],
      "name": "getL1ERC20Address",
      "outputs": [
        {
          "internalType": "address",
          "name": "",
          "type": "address"
        }
      ],
      "stateMutability": "view",
      "type": "function"
    },
    {
      "inputs": [
        {
          "internalType": "address",
          "name": "_counterpart",
          "type": "address"
        },
        {
          "internalType": "address",
          "name": "_router",
          "type": "address"
        },
        {
          "internalType": "address",
          "name": "_messenger",
          "type": "address"
        },
        {
          "internalType": "address",
          "name": "_l1Token",
          "type": "address"
        },
        {
          "internalType": "address",
          "name": "_l2Token",
          "type": "address"
        }
      ],
      "name": "initialize",
      "outputs": [],
      "stateMutability": "nonpayable",
      "type": "function"
    },
    {
      "inputs": [],
      "name": "l1Token",
      "outputs": [
        {
          "internalType": "address",
          "name": "",
          "type": "address"
        }
      ],
      "stateMutability": "view",
      "type": "function"
    },
    {
      "inputs": [],
      "name": "l2Token",
      "outputs": [
        {
          "internalType": "address",
          "name": "",
          "type": "address"
        }
      ],
      "stateMutability": "view",
      "type": "function"
    },
    {
      "inputs": [],
      "name": "messenger",
      "outputs": [
        {
          "internalType": "address",
          "name": "",
          "type": "address"
        }
      ],
      "stateMutability": "view",
      "type": "function"
    },
    {
      "inputs": [],
      "name": "owner",
      "outputs": [
        {
          "internalType": "address",
          "name": "",
          "type": "address"
        }
      ],
      "stateMutability": "view",
      "type": "function"
    },
    {
      "inputs": [],
      "name": "renounceOwnership",
      "outputs": [],
      "stateMutability": "nonpayable",
      "type": "function"
    },
    {
      "inputs": [],
      "name": "router",
      "outputs": [
        {
          "internalType": "address",
          "name": "",
          "type": "address"
        }
      ],
      "stateMutability": "view",
      "type": "function"
    },
    {
      "inputs": [
        {
          "internalType": "address",
          "name": "newOwner",
          "type": "address"
        }
      ],
      "name": "transferOwnership",
      "outputs": [],
      "stateMutability": "nonpayable",
      "type": "function"
    }
  ],
  "bytecode": "0x608060405234801561001057600080fd5b5061001a33610023565b60018055610073565b600080546001600160a01b038381166001600160a01b0319831681178455604051919092169283917f8be0079c531659141344cd1fd0a4f28419497f9722a3daafe3b4186f6b6457e09190a35050565b610f56806100826000396000f3fe6080604052600436106100a75760003560e01c8063797594b011610064578063797594b0146101725780638431f5c1146101925780638da5cb5b146101b2578063c01e1bd6146101d0578063f2fde38b146101f0578063f887ea401461021057600080fd5b80631459457a146100ac5780633cb747bf146100ce5780634ca42ec61461010a57806354bbd59c1461011d57806356eff2671461013d578063715018a61461015d575b600080fd5b3480156100b857600080fd5b506100cc6100c7366004610c40565b610230565b005b3480156100da57600080fd5b506006546100ee906001600160a01b031681565b6040516001600160a01b03909116815260200160405180910390f35b6100cc610118366004610cb1565b610502565b34801561012957600080fd5b506100ee610138366004610cd3565b6105e1565b34801561014957600080fd5b506003546100ee906001600160a01b031681565b34801561016957600080fd5b506100cc610652565b34801561017e57600080fd5b506004546100ee906001600160a01b031681565b34801561019e57600080fd5b506100cc6101ad366004610cf7565b610666565b3480156101be57600080fd5b506000546001600160a01b03166100ee565b3480156101dc57600080fd5b506002546100ee906001600160a01b031681565b3480156101fc57600080fd5b506100cc61020b366004610cd3565b610923565b34801561021c57600080fd5b506005546100ee906001600160a01b031681565b61023861099c565b600654600160a01b900460ff16156102a25760405162461bcd60e51b815260206004820152602260248201527f4c32546f6b656e4272696467653a20616c726561647920696e697469616c697a604482015261195960f21b60648201526084015b60405180910390fd5b6001600160a01b0384166103035760405162461bcd60e51b815260206004820152602260248201527f4c32546f6b656e4272696467653a207a65726f20726f75746572206164647265604482015261737360f01b6064820152608401610299565b6001600160a01b0383166103675760405162461bcd60e51b815260206004820152602560248201527f4c32546f6b656e4272696467653a207a65726f206d657373656e676572206164604482015264647265737360d81b6064820152608401610299565b6001600160a01b0385166103cd5760405162461bcd60e51b815260206004820152602760248201527f4c32546f6b656e4272696467653a207a65726f20636f756e74657270617274206044820152666164647265737360c81b6064820152608401610299565b6001600160a01b03821661042f5760405162461bcd60e51b8152602060048201526024808201527f4c32546f6b656e4272696467653a207a65726f206c3120746f6b656e206164646044820152637265737360e01b6064820152608401610299565b6001600160a01b0381166104915760405162461bcd60e51b8152602060048201526024808201527f4c32546f6b656e4272696467653a207a65726f206c3220746f6b656e206164646044820152637265737360e01b6064820152608401610299565b600480546001600160a01b039687166001600160a01b03199182161790915560058054958716958216959095179094556006805460028054948816948716949094179093556003805492871692909516919091179093556001600160a81b031916921691909117600160a01b179055565b61050a6109f6565b600082116105645760405162461bcd60e51b815260206004820152602160248201527f4c32546f6b656e4272696467653a20627269646765207a65726f20616d6f756e6044820152601d60fa1b6064820152608401610299565b600034116105b45760405162461bcd60e51b815260206004820181905260248201527f4c32546f6b656e4272696467653a206e6565642045544820666f7220666565736044820152606401610299565b6040805160008152602081019091526105d4903390819085908590610a4f565b6105dd60018055565b5050565b6003546000906001600160a01b038381169116146106415760405162461bcd60e51b815260206004820152601c60248201527f4c32546f6b656e4272696467653a20696e76616c696420746f6b656e000000006044820152606401610299565b50506002546001600160a01b031690565b61065a61099c565b6106646000610bdb565b565b6006546001600160a01b031633146106ca5760405162461bcd60e51b815260206004820152602160248201527f4c32546f6b656e4272696467653a206e6f742066726f6d206d657373656e67656044820152603960f91b6064820152608401610299565b6004805460065460408051636e296e4560e01b815290516001600160a01b03938416949390921692636e296e459282820192602092908290030181865afa158015610719573d6000803e3d6000fd5b505050506040513d601f19601f8201168201806040525081019061073d9190610dbe565b6001600160a01b03161461079f5760405162461bcd60e51b815260206004820152602360248201527f4c32546f6b656e4272696467653a206e6f742066726f6d20636f756e74657270604482015262185c9d60ea1b6064820152608401610299565b6002546001600160a01b038881169116146107fc5760405162461bcd60e51b815260206004820152601f60248201527f4c32546f6b656e4272696467653a20696e76616c6964206c3120746f6b656e006044820152606401610299565b6003546001600160a01b038781169116146108595760405162461bcd60e51b815260206004820152601f60248201527f4c32546f6b656e4272696467653a20696e76616c6964206c3220746f6b656e006044820152606401610299565b6003546040516340c10f1960e01b81526001600160a01b03868116600483015260248201869052909116906340c10f1990604401600060405180830381600087803b1580156108a757600080fd5b505af11580156108bb573d6000803e3d6000fd5b50505050846001600160a01b0316866001600160a01b0316886001600160a01b03167f165ba69f6ab40c50cade6f65431801e5f9c7d7830b7545391920db039133ba34878787876040516109129493929190610ddb565b60405180910390a450505050505050565b61092b61099c565b6001600160a01b0381166109905760405162461bcd60e51b815260206004820152602660248201527f4f776e61626c653a206e6577206f776e657220697320746865207a65726f206160448201526564647265737360d01b6064820152608401610299565b61099981610bdb565b50565b6000546001600160a01b031633146106645760405162461bcd60e51b815260206004820181905260248201527f4f776e61626c653a2063616c6c6572206973206e6f7420746865206f776e65726044820152606401610299565b600260015403610a485760405162461bcd60e51b815260206004820152601f60248201527f5265656e7472616e637947756172643a207265656e7472616e742063616c6c006044820152606401610299565b6002600155565b600354604051632770a7eb60e21b81526001600160a01b0387811660048301526024820186905290911690639dc29fac90604401600060405180830381600087803b158015610a9d57600080fd5b505af1158015610ab1573d6000803e3d6000fd5b505060025460035460405160009450610ae593506001600160a01b0392831692909116908990899089908890602401610e69565b60408051601f198184030181529181526020820180516001600160e01b031663084bd13b60e41b17905260065460048054925163b2267a7b60e01b81529394506001600160a01b039182169363b2267a7b933493610b4c93911691849188918b9101610eb8565b6000604051808303818588803b158015610b6557600080fd5b505af1158015610b79573d6000803e3d6000fd5b50506003546002546040516001600160a01b03808d1696509283169450911691507fd8d3a3f4ab95694bef40475997598bcf8acd3ed9617a4c1013795429414c27e890610bcb908a908a908990610ef0565b60405180910390a4505050505050565b600080546001600160a01b038381166001600160a01b0319831681178455604051919092169283917f8be0079c531659141344cd1fd0a4f28419497f9722a3daafe3b4186f6b6457e09190a35050565b6001600160a01b038116811461099957600080fd5b600080600080600060a08688031215610c5857600080fd5b8535610c6381610c2b565b94506020860135610c7381610c2b565b93506040860135610c8381610c2b565b92506060860135610c9381610c2b565b91506080860135610ca381610c2b565b809150509295509295909350565b60008060408385031215610cc457600080fd5b50508035926020909101359150565b600060208284031215610ce557600080fd5b8135610cf081610c2b565b9392505050565b600080600080600080600060c0888a031215610d1257600080fd5b8735610d1d81610c2b565b96506020880135610d2d81610c2b565b95506040880135610d3d81610c2b565b94506060880135610d4d81610c2b565b93506080880135925060a088013567ffffffffffffffff80821115610d7157600080fd5b818a0191508a601f830112610d8557600080fd5b813581811115610d9457600080fd5b8b6020828501011115610da657600080fd5b60208301945080935050505092959891949750929550565b600060208284031215610dd057600080fd5b8151610cf081610c2b565b6001600160a01b0385168152602081018490526060604082018190528101829052818360808301376000818301608090810191909152601f909201601f191601019392505050565b6000815180845260005b81811015610e4957602081850181015186830182015201610e2d565b506000602082860101526020601f19601f83011685010191505092915050565b6001600160a01b03878116825286811660208301528581166040830152841660608201526080810183905260c060a08201819052600090610eac90830184610e23565b98975050505050505050565b60018060a01b0385168152836020820152608060408201526000610edf6080830185610e23565b905082606083015295945050505050565b60018060a01b0384168152826020820152606060408201526000610f176060830184610e23565b9594505050505056fea2646970667358221220466af8544f0e0839cb417728435ec6366475aba5cf1e9a065761113ad537ba3f64736f6c63430008100033",
  "linkReferences": {},
  "deployedLinkReferences": {}
}