{
  "_format": "hh-sol-artifact-1",
  "contractName": "L2CustomToken",
  "sourceName": "contracts/L2CustomToken.sol",
  "abi": [
    {
      "inputs": [
        {
          "internalType": "address",
          "name": "gateway_",
          "type": "address"
        },
        {
          "internalType": "address",
          "name": "counterpart_",
          "type": "address"
        }
      ],
      "stateMutability": "nonpayable",
      "type": "constructor"
    },
    {
      "anonymous": false,
      "inputs": [
        {
          "indexed": true,
          "internalType": "address",
          "name": "owner",
          "type": "address"
        },
        {
          "indexed": true,
          "internalType": "address",
          "name": "spender",
          "type": "address"
        },
        {
          "indexed": false,
          "internalType": "uint256",
          "name": "value",
          "type": "uint256"
        }
      ],
      "name": "Approval",
      "type": "event"
    },
    {
      "anonymous": false,
      "inputs": [
        {
          "indexed": true,
          "internalType": "address",
          "name": "previousOwner",
          "type": "address"
        },
        {
          "indexed": true,
          "internalType": "address",
          "name": "newOwner",
          "type": "address"
        }
      ],
      "name": "OwnershipTransferred",
      "type": "event"
    },
    {
      "anonymous": false,
      "inputs": [
        {
          "indexed": true,
          "internalType": "address",
          "name": "from",
          "type": "address"
        },
        {
          "indexed": true,
          "internalType": "address",
          "name": "to",
          "type": "address"
        },
        {
          "indexed": false,
          "internalType": "uint256",
          "name": "value",
          "type": "uint256"
        }
      ],
      "name": "Transfer",
      "type": "event"
    },
    {
      "inputs": [
        {
          "internalType": "address",
          "name": "owner",
          "type": "address"
        },
        {
          "internalType": "address",
          "name": "spender",
          "type": "address"
        }
      ],
      "name": "allowance",
      "outputs": [
        {
          "internalType": "uint256",
          "name": "",
          "type": "uint256"
        }
      ],
      "stateMutability": "view",
      "type": "function"
    },
    {
      "inputs": [
        {
          "internalType": "address",
          "name": "spender",
          "type": "address"
        },
        {
          "internalType": "uint256",
          "name": "amount",
          "type": "uint256"
        }
      ],
      "name": "approve",
      "outputs": [
        {
          "internalType": "bool",
          "name": "",
          "type": "bool"
        }
      ],
      "stateMutability": "nonpayable",
      "type": "function"
    },
    {
      "inputs": [
        {
          "internalType": "address",
          "name": "account",
          "type": "address"
        }
      ],
      "name": "balanceOf",
      "outputs": [
        {
          "internalType": "uint256",
          "name": "",
          "type": "uint256"
        }
      ],
      "stateMutability": "view",
      "type": "function"
    },
    {
      "inputs": [
        {
          "internalType": "address",
          "name": "from",
          "type": "address"
        },
        {
          "internalType": "uint256",
          "name": "amount",
          "type": "uint256"
        }
      ],
      "name": "burn",
      "outputs": [],
      "stateMutability": "nonpayable",
      "type": "function"
    },
    {
      "inputs": [],
      "name": "counterpart",
      "outputs": [
        {
          "internalType": "address",
          "name": "",
          "type": "address"
        }
      ],
      "stateMutability": "view",
      "type": "function"
    },
    {
      "inputs": [],
      "name": "decimals",
      "outputs": [
        {
          "internalType": "uint8",
          "name": "",
          "type": "uint8"
        }
      ],
      "stateMutability": "view",
      "type": "function"
    },
    {
      "inputs": [
        {
          "internalType": "address",
          "name": "spender",
          "type": "address"
        },
        {
          "internalType": "uint256",
          "name": "subtractedValue",
          "type": "uint256"
        }
      ],
      "name": "decreaseAllowance",
      "outputs": [
        {
          "internalType": "bool",
          "name": "",
          "type": "bool"
        }
      ],
      "stateMutability": "nonpayable",
      "type": "function"
    },
    {
      "inputs": [],
      "name": "gateway",
      "outputs": [
        {
          "internalType": "address",
          "name": "",
          "type": "address"
        }
      ],
      "stateMutability": "view",
      "type": "function"
    },
    {
      "inputs": [
        {
          "internalType": "address",
          "name": "spender",
          "type": "address"
        },
        {
          "internalType": "uint256",
          "name": "addedValue",
          "type": "uint256"
        }
      ],
      "name": "increaseAllowance",
      "outputs": [
        {
          "internalType": "bool",
          "name": "",
          "type": "bool"
        }
      ],
      "stateMutability": "nonpayable",
      "type": "function"
    },
    {
      "inputs": [],
      "name": "l1Token",
      "outputs": [
        {
          "internalType": "address",
          "name": "",
          "type": "address"
        }
      ],
      "stateMutability": "view",
      "type": "function"
    },
    {
      "inputs": [
        {
          "internalType": "address",
          "name": "to",
          "type": "address"
        },
        {
          "internalType": "uint256",
          "name": "amount",
          "type": "uint256"
        }
      ],
      "name": "mint",
      "outputs": [],
      "stateMutability": "nonpayable",
      "type": "function"
    },
    {
      "inputs": [],
      "name": "name",
      "outputs": [
        {
          "internalType": "string",
          "name": "",
          "type": "string"
        }
      ],
      "stateMutability": "view",
      "type": "function"
    },
    {
      "inputs": [],
      "name": "owner",
      "outputs": [
        {
          "internalType": "address",
          "name": "",
          "type": "address"
        }
      ],
      "stateMutability": "view",
      "type": "function"
    },
    {
      "inputs": [],
      "name": "renounceOwnership",
      "outputs": [],
      "stateMutability": "nonpayable",
      "type": "function"
    },
    {
      "inputs": [
        {
          "internalType": "address",
          "name": "newCounterpart",
          "type": "address"
        }
      ],
      "name": "setCounterpart",
      "outputs": [],
      "stateMutability": "nonpayable",
      "type": "function"
    },
    {
      "inputs": [
        {
          "internalType": "address",
          "name": "newGateway",
          "type": "address"
        }
      ],
      "name": "setGateway",
      "outputs": [],
      "stateMutability": "nonpayable",
      "type": "function"
    },
    {
      "inputs": [],
      "name": "symbol",
      "outputs": [
        {
          "internalType": "string",
          "name": "",
          "type": "string"
        }
      ],
      "stateMutability": "view",
      "type": "function"
    },
    {
      "inputs": [],
      "name": "totalSupply",
      "outputs": [
        {
          "internalType": "uint256",
          "name": "",
          "type": "uint256"
        }
      ],
      "stateMutability": "view",
      "type": "function"
    },
    {
      "inputs": [
        {
          "internalType": "address",
          "name": "to",
          "type": "address"
        },
        {
          "internalType": "uint256",
          "name": "amount",
          "type": "uint256"
        }
      ],
      "name": "transfer",
      "outputs": [
        {
          "internalType": "bool",
          "name": "",
          "type": "bool"
        }
      ],
      "stateMutability": "nonpayable",
      "type": "function"
    },
    {
      "inputs": [
        {
          "internalType": "address",
          "name": "receiver",
          "type": "address"
        },
        {
          "internalType": "uint256",
          "name": "amount",
          "type": "uint256"
        },
        {
          "internalType": "bytes",
          "name": "data",
          "type": "bytes"
        }
      ],
      "name": "transferAndCall",
      "outputs": [
        {
          "internalType": "bool",
          "name": "success",
          "type": "bool"
        }
      ],
      "stateMutability": "nonpayable",
      "type": "function"
    },
    {
      "inputs": [
        {
          "internalType": "address",
          "name": "from",
          "type": "address"
        },
        {
          "internalType": "address",
          "name": "to",
          "type": "address"
        },
        {
          "internalType": "uint256",
          "name": "amount",
          "type": "uint256"
        }
      ],
      "name": "transferFrom",
      "outputs": [
        {
          "internalType": "bool",
          "name": "",
          "type": "bool"
        }
      ],
      "stateMutability": "nonpayable",
      "type": "function"
    },
    {
      "inputs": [
        {
          "internalType": "address",
          "name": "newOwner",
          "type": "address"
        }
      ],
      "name": "transferOwnership",
      "outputs": [],
      "stateMutability": "nonpayable",
      "type": "function"
    }
  ],
  "bytecode": "0x60806040523480156200001157600080fd5b506040516200126638038062001266833981016040819052620000349162000169565b6040518060400160405280601781526020017f7375745f746573745f746f6b656e5f626f6e63685f6c320000000000000000008152506040518060400160405280600481526020016339baba1960e11b815250816003908162000098919062000246565b506004620000a7828262000246565b505050620000c4620000be620000f660201b60201c565b620000fa565b600680546001600160a01b039384166001600160a01b0319918216179091556007805492909316911617905562000312565b3390565b600580546001600160a01b038381166001600160a01b0319831681179093556040519116919082907f8be0079c531659141344cd1fd0a4f28419497f9722a3daafe3b4186f6b6457e090600090a35050565b80516001600160a01b03811681146200016457600080fd5b919050565b600080604083850312156200017d57600080fd5b62000188836200014c565b915062000198602084016200014c565b90509250929050565b634e487b7160e01b600052604160045260246000fd5b600181811c90821680620001cc57607f821691505b602082108103620001ed57634e487b7160e01b600052602260045260246000fd5b50919050565b601f8211156200024157600081815260208120601f850160051c810160208610156200021c5750805b601f850160051c820191505b818110156200023d5782815560010162000228565b5050505b505050565b81516001600160401b03811115620002625762000262620001a1565b6200027a81620002738454620001b7565b84620001f3565b602080601f831160018114620002b25760008415620002995750858301515b600019600386901b1c1916600185901b1785556200023d565b600085815260208120601f198616915b82811015620002e357888601518255948401946001909101908401620002c2565b5085821015620003025787850151600019600388901b60f8161c191681555b5050505050600190811b01905550565b610f4480620003226000396000f3fe608060405234801561001057600080fd5b50600436106101425760003560e01c806377061e4d116100b85780639dc29fac1161007c5780639dc29fac1461029d578063a457c2d7146102b0578063a9059cbb146102c3578063c01e1bd614610260578063dd62ed3e146102d6578063f2fde38b146102e957600080fd5b806377061e4d1461024d578063797594b0146102605780638da5cb5b1461027157806390646b4a1461028257806395d89b411461029557600080fd5b8063313ce5671161010a578063313ce567146101d257806339509351146101e15780634000aea0146101f457806340c10f191461020757806370a082311461021c578063715018a61461024557600080fd5b806306fdde0314610147578063095ea7b314610165578063116191b61461018857806318160ddd146101ad57806323b872dd146101bf575b600080fd5b61014f6102fc565b60405161015c9190610cbf565b60405180910390f35b610178610173366004610d29565b61038e565b604051901515815260200161015c565b6006546001600160a01b03165b6040516001600160a01b03909116815260200161015c565b6002545b60405190815260200161015c565b6101786101cd366004610d53565b6103a8565b6040516012815260200161015c565b6101786101ef366004610d29565b6103cc565b610178610202366004610d8f565b6103ee565b61021a610215366004610d29565b610406565b005b6101b161022a366004610e16565b6001600160a01b031660009081526020819052604090205490565b61021a610447565b61021a61025b366004610e16565b61045b565b6007546001600160a01b0316610195565b6005546001600160a01b0316610195565b61021a610290366004610e16565b6104eb565b61014f610577565b61021a6102ab366004610d29565b610586565b6101786102be366004610d29565b6105ba565b6101786102d1366004610d29565b610635565b6101b16102e4366004610e38565b610643565b61021a6102f7366004610e16565b61066e565b60606003805461030b90610e6b565b80601f016020809104026020016040519081016040528092919081815260200182805461033790610e6b565b80156103845780601f1061035957610100808354040283529160200191610384565b820191906000526020600020905b81548152906001019060200180831161036757829003601f168201915b5050505050905090565b60003361039c8185856106e7565b60019150505b92915050565b6000336103b685828561080c565b6103c1858585610886565b506001949350505050565b60003361039c8185856103df8383610643565b6103e99190610ea5565b6106e7565b60006103fa8585610635565b50600195945050505050565b6006546001600160a01b031633146104395760405162461bcd60e51b815260040161043090610ec6565b60405180910390fd5b6104438282610a2a565b5050565b61044f610ae9565b6104596000610b43565b565b610463610ae9565b6001600160a01b0381166104c95760405162461bcd60e51b815260206004820152602760248201527f4c32437573746f6d546f6b656e3a207a65726f20636f756e74657270617274206044820152666164647265737360c81b6064820152608401610430565b600780546001600160a01b0319166001600160a01b0392909216919091179055565b6104f3610ae9565b6001600160a01b0381166105555760405162461bcd60e51b815260206004820152602360248201527f4c32437573746f6d546f6b656e3a207a65726f2067617465776179206164647260448201526265737360e81b6064820152608401610430565b600680546001600160a01b0319166001600160a01b0392909216919091179055565b60606004805461030b90610e6b565b6006546001600160a01b031633146105b05760405162461bcd60e51b815260040161043090610ec6565b6104438282610b95565b600033816105c88286610643565b9050838110156106285760405162461bcd60e51b815260206004820152602560248201527f45524332303a2064656372656173656420616c6c6f77616e63652062656c6f77604482015264207a65726f60d81b6064820152608401610430565b6103c182868684036106e7565b60003361039c818585610886565b6001600160a01b03918216600090815260016020908152604080832093909416825291909152205490565b610676610ae9565b6001600160a01b0381166106db5760405162461bcd60e51b815260206004820152602660248201527f4f776e61626c653a206e6577206f776e657220697320746865207a65726f206160448201526564647265737360d01b6064820152608401610430565b6106e481610b43565b50565b6001600160a01b0383166107495760405162461bcd60e51b8152602060048201526024808201527f45524332303a20617070726f76652066726f6d20746865207a65726f206164646044820152637265737360e01b6064820152608401610430565b6001600160a01b0382166107aa5760405162461bcd60e51b815260206004820152602260248201527f45524332303a20617070726f766520746f20746865207a65726f206164647265604482015261737360f01b6064820152608401610430565b6001600160a01b0383811660008181526001602090815260408083209487168084529482529182902085905590518481527f8c5be1e5ebec7d5bd14f71427d1e84f3dd0314c0f7b2291e5b200ac8c7c3b92591015b60405180910390a3505050565b60006108188484610643565b9050600019811461088057818110156108735760405162461bcd60e51b815260206004820152601d60248201527f45524332303a20696e73756666696369656e7420616c6c6f77616e63650000006044820152606401610430565b61088084848484036106e7565b50505050565b6001600160a01b0383166108ea5760405162461bcd60e51b815260206004820152602560248201527f45524332303a207472616e736665722066726f6d20746865207a65726f206164604482015264647265737360d81b6064820152608401610430565b6001600160a01b03821661094c5760405162461bcd60e51b815260206004820152602360248201527f45524332303a207472616e7366657220746f20746865207a65726f206164647260448201526265737360e81b6064820152608401610430565b6001600160a01b038316600090815260208190526040902054818110156109c45760405162461bcd60e51b815260206004820152602660248201527f45524332303a207472616e7366657220616d6f756e7420657863656564732062604482015265616c616e636560d01b6064820152608401610430565b6001600160a01b03848116600081815260208181526040808320878703905593871680835291849020805487019055925185815290927fddf252ad1be2c89b69c2b068fc378daa952ba7f163c4a11628f55a4df523b3ef910160405180910390a3610880565b6001600160a01b038216610a805760405162461bcd60e51b815260206004820152601f60248201527f45524332303a206d696e7420746f20746865207a65726f2061646472657373006044820152606401610430565b8060026000828254610a929190610ea5565b90915550506001600160a01b038216600081815260208181526040808320805486019055518481527fddf252ad1be2c89b69c2b068fc378daa952ba7f163c4a11628f55a4df523b3ef910160405180910390a35050565b6005546001600160a01b031633146104595760405162461bcd60e51b815260206004820181905260248201527f4f776e61626c653a2063616c6c6572206973206e6f7420746865206f776e65726044820152606401610430565b600580546001600160a01b038381166001600160a01b0319831681179093556040519116919082907f8be0079c531659141344cd1fd0a4f28419497f9722a3daafe3b4186f6b6457e090600090a35050565b6001600160a01b038216610bf55760405162461bcd60e51b815260206004820152602160248201527f45524332303a206275726e2066726f6d20746865207a65726f206164647265736044820152607360f81b6064820152608401610430565b6001600160a01b03821660009081526020819052604090205481811015610c695760405162461bcd60e51b815260206004820152602260248201527f45524332303a206275726e20616d6f756e7420657863656564732062616c616e604482015261636560f01b6064820152608401610430565b6001600160a01b0383166000818152602081815260408083208686039055600280548790039055518581529192917fddf252ad1be2c89b69c2b068fc378daa952ba7f163c4a11628f55a4df523b3ef91016107ff565b600060208083528351808285015260005b81811015610cec57858101830151858201604001528201610cd0565b506000604082860101526040601f19601f8301168501019250505092915050565b80356001600160a01b0381168114610d2457600080fd5b919050565b60008060408385031215610d3c57600080fd5b610d4583610d0d565b946020939093013593505050565b600080600060608486031215610d6857600080fd5b610d7184610d0d565b9250610d7f60208501610d0d565b9150604084013590509250925092565b60008060008060608587031215610da557600080fd5b610dae85610d0d565b935060208501359250604085013567ffffffffffffffff80821115610dd257600080fd5b818701915087601f830112610de657600080fd5b813581811115610df557600080fd5b886020828501011115610e0757600080fd5b95989497505060200194505050565b600060208284031215610e2857600080fd5b610e3182610d0d565b9392505050565b60008060408385031215610e4b57600080fd5b610e5483610d0d565b9150610e6260208401610d0d565b90509250929050565b600181811c90821680610e7f57607f821691505b602082108103610e9f57634e487b7160e01b600052602260045260246000fd5b50919050565b808201808211156103a257634e487b7160e01b600052601160045260246000fd5b60208082526028908201527f4c32437573746f6d546f6b656e3a2063616c6c6572206973206e6f7420746865604082015267206761746577617960c01b60608201526080019056fea264697066735822122033631791db952e4c8d0b7308b06e22b864d39ae78ebf8307640d52a4ce9b192a64736f6c63430008100033",
  "linkReferences": {},
  "deployedLinkReferences": {}
}