{
  "_format": "hh-sol-artifact-1",
  "contractName": "L1TokenBridge",
  "sourceName": "contracts/L1TokenBridge.sol",
  "abi": [
    {
      "inputs": [],
      "stateMutability": "nonpayable",
      "type": "constructor"
    },
    {
      "anonymous": false,
      "inputs": [
        {
          "indexed": true,
          "internalType": "address",
          "name": "l1Token",
          "type": "address"
        },
        {
          "indexed": true,
          "internalType": "address",
          "name": "l2Token",
          "type": "address"
        },
        {
          "indexed": true,
          "internalType": "address",
          "name": "from",
          "type": "address"
        },
        {
          "indexed": false,
          "internalType": "address",
          "name": "to",
          "type": "address"
        },
        {
          "indexed": false,
          "internalType": "uint256",
          "name": "amount",
          "type": "uint256"
        },
        {
          "indexed": false,
          "internalType": "bytes",
          "name": "data",
          "type": "bytes"
        }
      ],
      "name": "DepositERC20",
      "type": "event"
    },
    {
      "anonymous": false,
      "inputs": [
        {
          "indexed": true,
          "internalType": "address",
          "name": "l1Token",
          "type": "address"
        },
        {
          "indexed": true,
          "internalType": "address",
          "name": "l2Token",
          "type": "address"
        },
        {
          "indexed": true,
          "internalType": "address",
          "name": "from",
          "type": "address"
        },
        {
          "indexed": false,
          "internalType": "address",
          "name": "to",
          "type": "address"
        },
        {
          "indexed": false,
          "internalType": "uint256",
          "name": "amount",
          "type": "uint256"
        },
        {
          "indexed": false,
          "internalType": "bytes",
          "name": "data",
          "type": "bytes"
        }
      ],
      "name": "FinalizeWithdrawERC20",
      "type": "event"
    },
    {
      "anonymous": false,
      "inputs": [
        {
          "indexed": true,
          "internalType": "address",
          "name": "previousOwner",
          "type": "address"
        },
        {
          "indexed": true,
          "internalType": "address",
          "name": "newOwner",
          "type": "address"
        }
      ],
      "name": "OwnershipTransferred",
      "type": "event"
    },
    {
      "inputs": [
        {
          "internalType": "uint256",
          "name": "_amount",
          "type": "uint256"
        },
        {
          "internalType": "uint256",
          "name": "_gasLimit",
          "type": "uint256"
        }
      ],
      "name": "bridgeToken",
      "outputs": [],
      "stateMutability": "payable",
      "type": "function"
    },
    {
      "inputs": [],
      "name": "counterpart",
      "outputs": [
        {
          "internalType": "address",
          "name": "",
          "type": "address"
        }
      ],
      "stateMutability": "view",
      "type": "function"
    },
    {
      "inputs": [
        {
          "internalType": "address",
          "name": "_l1Token",
          "type": "address"
        },
        {
          "internalType": "address",
          "name": "_l2Token",
          "type": "address"
        },
        {
          "internalType": "address",
          "name": "_from",
          "type": "address"
        },
        {
          "internalType": "address",
          "name": "_to",
          "type": "address"
        },
        {
          "internalType": "uint256",
          "name": "_amount",
          "type": "uint256"
        },
        {
          "internalType": "bytes",
          "name": "_data",
          "type": "bytes"
        }
      ],
      "name": "finalizeWithdrawERC20",
      "outputs": [],
      "stateMutability": "payable",
      "type": "function"
    },
    {
      "inputs": [
        {
          "internalType": "address",
          "name": "_l1Token",
          "type": "address"
        }
      ],
      "name": "getL2ERC20Address",
      "outputs": [
        {
          "internalType": "address",
          "name": "",
          "type": "address"
        }
      ],
      "stateMutability": "view",
      "type": "function"
    },
    {
      "inputs": [
        {
          "internalType": "address",
          "name": "_counterpart",
          "type": "address"
        },
        {
          "internalType": "address",
          "name": "_router",
          "type": "address"
        },
        {
          "internalType": "address",
          "name": "_messenger",
          "type": "address"
        },
        {
          "internalType": "address",
          "name": "_l1Token",
          "type": "address"
        },
        {
          "internalType": "address",
          "name": "_l2Token",
          "type": "address"
        }
      ],
      "name": "initialize",
      "outputs": [],
      "stateMutability": "nonpayable",
      "type": "function"
    },
    {
      "inputs": [],
      "name": "l1Token",
      "outputs": [
        {
          "internalType": "address",
          "name": "",
          "type": "address"
        }
      ],
      "stateMutability": "view",
      "type": "function"
    },
    {
      "inputs": [],
      "name": "l2Token",
      "outputs": [
        {
          "internalType": "address",
          "name": "",
          "type": "address"
        }
      ],
      "stateMutability": "view",
      "type": "function"
    },
    {
      "inputs": [],
      "name": "messenger",
      "outputs": [
        {
          "internalType": "address",
          "name": "",
          "type": "address"
        }
      ],
      "stateMutability": "view",
      "type": "function"
    },
    {
      "inputs": [],
      "name": "owner",
      "outputs": [
        {
          "internalType": "address",
          "name": "",
          "type": "address"
        }
      ],
      "stateMutability": "view",
      "type": "function"
    },
    {
      "inputs": [],
      "name": "renounceOwnership",
      "outputs": [],
      "stateMutability": "nonpayable",
      "type": "function"
    },
    {
      "inputs": [],
      "name": "router",
      "outputs": [
        {
          "internalType": "address",
          "name": "",
          "type": "address"
        }
      ],
      "stateMutability": "view",
      "type": "function"
    },
    {
      "inputs": [
        {
          "internalType": "address",
          "name": "newOwner",
          "type": "address"
        }
      ],
      "name": "transferOwnership",
      "outputs": [],
      "stateMutability": "nonpayable",
      "type": "function"
    }
  ],
  "bytecode": "0x608060405234801561001057600080fd5b5061001a33610023565b60018055610073565b600080546001600160a01b038381166001600160a01b0319831681178455604051919092169283917f8be0079c531659141344cd1fd0a4f28419497f9722a3daafe3b4186f6b6457e09190a35050565b61121a806100826000396000f3fe6080604052600436106100a75760003560e01c806384bd13b01161006457806384bd13b0146101725780638da5cb5b14610185578063c01e1bd6146101a3578063c676ad29146101c3578063f2fde38b146101e3578063f887ea401461020357600080fd5b80631459457a146100ac5780633cb747bf146100ce5780634ca42ec61461010a57806356eff2671461011d578063715018a61461013d578063797594b014610152575b600080fd5b3480156100b857600080fd5b506100cc6100c7366004610e9f565b610223565b005b3480156100da57600080fd5b506006546100ee906001600160a01b031681565b6040516001600160a01b03909116815260200160405180910390f35b6100cc610118366004610f10565b6104f5565b34801561012957600080fd5b506003546100ee906001600160a01b031681565b34801561014957600080fd5b506100cc6105bf565b34801561015e57600080fd5b506004546100ee906001600160a01b031681565b6100cc610180366004610f32565b6105d3565b34801561019157600080fd5b506000546001600160a01b03166100ee565b3480156101af57600080fd5b506002546100ee906001600160a01b031681565b3480156101cf57600080fd5b506100ee6101de366004610ff9565b61083e565b3480156101ef57600080fd5b506100cc6101fe366004610ff9565b6108af565b34801561020f57600080fd5b506005546100ee906001600160a01b031681565b61022b610928565b600654600160a01b900460ff16156102955760405162461bcd60e51b815260206004820152602260248201527f4c31546f6b656e4272696467653a20616c726561647920696e697469616c697a604482015261195960f21b60648201526084015b60405180910390fd5b6001600160a01b0384166102f65760405162461bcd60e51b815260206004820152602260248201527f4c31546f6b656e4272696467653a207a65726f20726f75746572206164647265604482015261737360f01b606482015260840161028c565b6001600160a01b03831661035a5760405162461bcd60e51b815260206004820152602560248201527f4c31546f6b656e4272696467653a207a65726f206d657373656e676572206164604482015264647265737360d81b606482015260840161028c565b6001600160a01b0385166103c05760405162461bcd60e51b815260206004820152602760248201527f4c31546f6b656e4272696467653a207a65726f20636f756e74657270617274206044820152666164647265737360c81b606482015260840161028c565b6001600160a01b0382166104225760405162461bcd60e51b8152602060048201526024808201527f4c31546f6b656e4272696467653a207a65726f206c3120746f6b656e206164646044820152637265737360e01b606482015260840161028c565b6001600160a01b0381166104845760405162461bcd60e51b8152602060048201526024808201527f4c31546f6b656e4272696467653a207a65726f206c3220746f6b656e206164646044820152637265737360e01b606482015260840161028c565b600480546001600160a01b039687166001600160a01b03199182161790915560058054958716958216959095179094556006805460028054948816948716949094179093556003805492871692909516919091179093556001600160a81b031916921691909117600160a01b179055565b6104fd610982565b6000341161054d5760405162461bcd60e51b815260206004820181905260248201527f4c31546f6b656e4272696467653a206e6565642045544820666f722066656573604482015260640161028c565b600082116105a75760405162461bcd60e51b815260206004820152602160248201527f4c31546f6b656e4272696467653a20627269646765207a65726f20616d6f756e6044820152601d60fa1b606482015260840161028c565b6105b23383836109db565b6105bb60018055565b5050565b6105c7610928565b6105d16000610b2f565b565b6006546001600160a01b031633146106375760405162461bcd60e51b815260206004820152602160248201527f4c31546f6b656e4272696467653a206e6f742066726f6d206d657373656e67656044820152603960f91b606482015260840161028c565b6004805460065460408051636e296e4560e01b815290516001600160a01b03938416949390921692636e296e459282820192602092908290030181865afa158015610686573d6000803e3d6000fd5b505050506040513d601f19601f820116820180604052508101906106aa919061101d565b6001600160a01b03161461070c5760405162461bcd60e51b815260206004820152602360248201527f4c31546f6b656e4272696467653a206e6f742066726f6d20636f756e74657270604482015262185c9d60ea1b606482015260840161028c565b6002546001600160a01b038881169116146107695760405162461bcd60e51b815260206004820152601f60248201527f4c31546f6b656e4272696467653a20696e76616c6964206c3120746f6b656e00604482015260640161028c565b6003546001600160a01b038781169116146107c65760405162461bcd60e51b815260206004820152601f60248201527f4c31546f6b656e4272696467653a20696e76616c6964206c3220746f6b656e00604482015260640161028c565b6107da6001600160a01b0388168585610b7f565b846001600160a01b0316866001600160a01b0316886001600160a01b03167fc6f985873b37805705f6bce756dce3d1ff4b603e298d506288cce499926846a78787878760405161082d949392919061103a565b60405180910390a450505050505050565b6002546000906001600160a01b0383811691161461089e5760405162461bcd60e51b815260206004820152601c60248201527f4c31546f6b656e4272696467653a20696e76616c696420746f6b656e00000000604482015260640161028c565b50506003546001600160a01b031690565b6108b7610928565b6001600160a01b03811661091c5760405162461bcd60e51b815260206004820152602660248201527f4f776e61626c653a206e6577206f776e657220697320746865207a65726f206160448201526564647265737360d01b606482015260840161028c565b61092581610b2f565b50565b6000546001600160a01b031633146105d15760405162461bcd60e51b815260206004820181905260248201527f4f776e61626c653a2063616c6c6572206973206e6f7420746865206f776e6572604482015260640161028c565b6002600154036109d45760405162461bcd60e51b815260206004820152601f60248201527f5265656e7472616e637947756172643a207265656e7472616e742063616c6c00604482015260640161028c565b6002600155565b6002546109f3906001600160a01b0316333085610be7565b600254600354604080516000808252602082019092529092610a2d926001600160a01b0391821692911690339088908890604481016110d2565b60408051601f198184030181529181526020820180516001600160e01b0316638431f5c160e01b179052600654600480549251635f7b157760e01b81529394506001600160a01b0391821693635f7b1577933493610a979391169160009188918a91339101611121565b6000604051808303818588803b158015610ab057600080fd5b505af1158015610ac4573d6000803e3d6000fd5b5050600354600254604080516000815260208101918290523396506001600160a01b0393841695509290911692507f31cd3b976e4d654022bf95c68a2ce53f1d5d94afabe0454d2832208eeb40af2591610b21918a918a91611163565b60405180910390a450505050565b600080546001600160a01b038381166001600160a01b0319831681178455604051919092169283917f8be0079c531659141344cd1fd0a4f28419497f9722a3daafe3b4186f6b6457e09190a35050565b6040516001600160a01b038316602482015260448101829052610be290849063a9059cbb60e01b906064015b60408051601f198184030181529190526020810180516001600160e01b03166001600160e01b031990931692909217909152610c25565b505050565b6040516001600160a01b0380851660248301528316604482015260648101829052610c1f9085906323b872dd60e01b90608401610bab565b50505050565b6000610c7a826040518060400160405280602081526020017f5361666545524332303a206c6f772d6c6576656c2063616c6c206661696c6564815250856001600160a01b0316610cfa9092919063ffffffff16565b9050805160001480610c9b575080806020019051810190610c9b9190611193565b610be25760405162461bcd60e51b815260206004820152602a60248201527f5361666545524332303a204552433230206f7065726174696f6e20646964206e6044820152691bdd081cdd58d8d9595960b21b606482015260840161028c565b6060610d098484600085610d11565b949350505050565b606082471015610d725760405162461bcd60e51b815260206004820152602660248201527f416464726573733a20696e73756666696369656e742062616c616e636520666f6044820152651c8818d85b1b60d21b606482015260840161028c565b600080866001600160a01b03168587604051610d8e91906111b5565b60006040518083038185875af1925050503d8060008114610dcb576040519150601f19603f3d011682016040523d82523d6000602084013e610dd0565b606091505b5091509150610de187838387610dec565b979650505050505050565b60608315610e5b578251600003610e54576001600160a01b0385163b610e545760405162461bcd60e51b815260206004820152601d60248201527f416464726573733a2063616c6c20746f206e6f6e2d636f6e7472616374000000604482015260640161028c565b5081610d09565b610d098383815115610e705781518083602001fd5b8060405162461bcd60e51b815260040161028c91906111d1565b6001600160a01b038116811461092557600080fd5b600080600080600060a08688031215610eb757600080fd5b8535610ec281610e8a565b94506020860135610ed281610e8a565b93506040860135610ee281610e8a565b92506060860135610ef281610e8a565b91506080860135610f0281610e8a565b809150509295509295909350565b60008060408385031215610f2357600080fd5b50508035926020909101359150565b600080600080600080600060c0888a031215610f4d57600080fd5b8735610f5881610e8a565b96506020880135610f6881610e8a565b95506040880135610f7881610e8a565b94506060880135610f8881610e8a565b93506080880135925060a088013567ffffffffffffffff80821115610fac57600080fd5b818a0191508a601f830112610fc057600080fd5b813581811115610fcf57600080fd5b8b6020828501011115610fe157600080fd5b60208301945080935050505092959891949750929550565b60006020828403121561100b57600080fd5b813561101681610e8a565b9392505050565b60006020828403121561102f57600080fd5b815161101681610e8a565b6001600160a01b0385168152602081018490526060604082018190528101829052818360808301376000818301608090810191909152601f909201601f191601019392505050565b60005b8381101561109d578181015183820152602001611085565b50506000910152565b600081518084526110be816020860160208601611082565b601f01601f19169290920160200192915050565b6001600160a01b03878116825286811660208301528581166040830152841660608201526080810183905260c060a08201819052600090611115908301846110a6565b98975050505050505050565b600060018060a01b03808816835286602084015260a0604084015261114960a08401876110a6565b606084019590955292909216608090910152509392505050565b60018060a01b038416815282602082015260606040820152600061118a60608301846110a6565b95945050505050565b6000602082840312156111a557600080fd5b8151801515811461101657600080fd5b600082516111c7818460208701611082565b9190910192915050565b60208152600061101660208301846110a656fea264697066735822122060a0713b0c0c19e7665b323d602c1316bded1c7de4b06d1390fc127580cd4ac164736f6c63430008100033",
  "linkReferences": {},
  "deployedLinkReferences": {}
}